{"jsonrpc":"2.0","result":{"author":"0x52bc44d5378309ee2abf1539bf71de1b7d7be3b5","difficulty":"0x7a54ea37e70","extraData":"0xd783010302844765746887676f312e342e32856c696e7578","gasLimit":"0x2fefd8","gasUsed":"0x4effc","hash":"0xe4114f29dab13bb379b1a200ef75950549d3338668804f73fbeff32a1d6aac96","logsBloom":"0x00000000000000000000000000000000000000000000000040000000000008000000000000000000040280000008000000000002000000000000000000000000000008000000000000000000000000000000000000000000000100000000000000400000020000000000000000000802000000000c00000000000000000000000000000080000000400004000000000000000000080000000000000000000000000000000000000400000000000000000000000000000408000800000000010000000000000000800000000000000000080000000000000000000000000020000000004000100000000000080000000000000000000000000000000000000000","miner":"0x52bc44d5378309ee2abf1539bf71de1b7d7be3b5","mixHash":"0xf694e738559be540a428825c347400d0b80d4bd4ef463fe6e8fb23f85abac010","nonce":"0x3e7e4ef1b37af74d","number":"0xb7acf","parentHash":"0x5516ce98208211bdc3c96199e57975b1c404aba3b1828222e306cf098bb9ee16","receiptsRoot":"0x353d5796bd1651aaa2b0b3235aba35175055421826642ae0c1633333d2b64a08","sealFields":["0xa0f694e738559be540a428825c347400d0b80d4bd4ef463fe6e8fb23f85abac010","0x883e7e4ef1b37af74d"],"sha3Uncles":"0x1dcc4de8dec75d7aab85b567b6ccd41ad312451b948a7413f0a142fd40d49347","size":"0x7b2","stateRoot":"0x90834029c450328101280a358d7455b489ab97529725190e88aa7bc647248fdf","timestamp":"0x567ee91e","totalDifficulty":"0x418a435117dcea24","transactions":[{"blockHash":"0xe4114f29dab13bb379b1a200ef75950549d3338668804f73fbeff32a1d6aac96","blockNumber":"0xb7acf","chainId":null,"condition":null,"creates":null,"from":"0x6d1c8ae6635fdc38762070bcddc9e28a5ddf1620","gas":"0x493e0","gasPrice":"0xc1b710800","hash":"0x56596e200cda1e84dea29865cd838abb2a2407c1984918c77fc1390beca7a741","input":"0x3ed486790000000000000000000000000cd500e9de384e56f8e8e902b98f9306f57f292800000000000000000000000000000000000000000000000000000000567ee93d00000000000000000000000000000000000000000000000000000000000000c000000000000000000000000000000000000000000000000000000000000001a000000000000000000000000004ffb25da4a17f76b39e8ef3efe69a01891206500000000000000000000000000000000000000000000000000000000002625a0000000000000000000000000000000000000000000000000000000000000000069c82e6f3ccd10b09d18fb9dda78b2a8c86112adb726ba6d282a73de38381bcf316123e8fa6af168f3cff07b717ddc81cf526991f590554396f8aeff23ac9b313d1eb1f8a81a0d4915cbf74f2caa400284c97b484c725b8b36806b5715deb77f7791434ea90776c044e1b4298d70358f7327864884d59a6e57ba05e956b70661d7f3892a54d85c4a5de457847d132c5b5f4eb719559c3ff5e3e1c7335032485792db92aa68c0dcc0772ba1efab17110f572a49db876c97c642f5eb88c0e1380600000000000000000000000000000000000000000000000000000000000000003000000000000000000000000000000000000000000000000000000000000001c000000000000000000000000000000000000000000000000000000000000001b000000000000000000000000000000000000000000000000000000000000001b","nonce":"0xae","publicKey":"0x705805639734a8f10091efdc25fe3334da42664804be455451d802caa8118b14c651fbe5004028df3f09363f6ff2fc7d17f802515d6386a4d039d57f29ab04d9","r":"0xdf98ecbb213751d085f77d248bc15be04605acb6553539e9154f00e3668f402d","raw":"0xf9028c81ae850c1b710800830493e0947de5aba7de728950c92c57d08e20d4077161f12f01b902243ed486790000000000000000000000000cd500e9de384e56f8e8e902b98f9306f57f292800000000000000000000000000000000000000000000000000000000567ee93d00000000000000000000000000000000000000000000000000000000000000c000000000000000000000000000000000000000000000000000000000000001a000000000000000000000000004ffb25da4a17f76b39e8ef3efe69a01891206500000000000000000000000000000000000000000000000000000000002625a0000000000000000000000000000000000000000000000000000000000000000069c82e6f3ccd10b09d18fb9dda78b2a8c86112adb726ba6d282a73de38381bcf316123e8fa6af168f3cff07b717ddc81cf526991f590554396f8aeff23ac9b313d1eb1f8a81a0d4915cbf74f2caa400284c97b484c725b8b36806b5715deb77f7791434ea90776c044e1b4298d70358f7327864884d59a6e57ba05e956b70661d7f3892a54d85c4a5de457847d132c5b5f4eb719559c3ff5e3e1c7335032485792db92aa68c0dcc0772ba1efab17110f572a49db876c97c642f5eb88c0e1380600000000000000000000000000000000000000000000000000000000000000003000000000000000000000000000000000000000000000000000000000000001c000000000000000000000000000000000000000000000000000000000000001b000000000000000000000000000000000000000000000000000000000000001b1ca0df98ecbb213751d085f77d248bc15be04605acb6553539e9154f00e3668f402da0611393a67c2dda678632080330e3c4f712cb570f5c7b3621c448ab941c09afff","s":"0x611393a67c2dda678632080330e3c4f712cb570f5c7b3621c448ab941c09afff","standardV":"0x1","to":"0x7de5aba7de728950c92c57d08e20d4077161f12f","transactionIndex":"0x0","v":"0x1c","value":"0x1"},{"blockHash":"0xe4114f29dab13bb379b1a200ef75950549d3338668804f73fbeff32a1d6aac96","blockNumber":"0xb7acf","chainId":null,"condition":null,"creates":null,"from":"0x2fe460838609764ef28edd3383c04dcce4e4f3ce","gas":"0x493e0","gasPrice":"0xc1b710800","hash":"0xbf3298c33c92281e64833ee6cb271ef19a000ffcba155e722c20fe729d5f8ec4","input":"0x3ed486790000000000000000000000000a0b9d1422bcc511162124fc110dd3b4bd7bf6fa00000000000000000000000000000000000000000000000000000000567ee92b00000000000000000000000000000000000000000000000000000000000000c000000000000000000000000000000000000000000000000000000000000001a000000000000000000000000023723abb7ca68cd48217f772695d1108048f8b7d0000000000000000000000000000000000000000000000000000000012897bc000000000000000000000000000000000000000000000000000000000000000064d4b9806f7f335c2c0cee753f5fb26ba652cba28e2f43d013337d84493bd2c2f54fd28edbb0a0a393ba3a6918daedd93f5db2e6215e541eef9e5e24299cc6e06bf42385fcecb8d6073b2793c618dca74f64b727352f9b2c7e82d112d5f0182ad5f8758758dd45370c548a9cc3bde42360a8ba5d3b1b94c38696d9a8e61298e7f561218ddbe75f080b12ef57acd3d793c89266bd44acd89aa7e8dd1356998f1af782b499b63045fd83afa5d07fa82446c19addde59c03a7a26cd032db4ff5b31a0000000000000000000000000000000000000000000000000000000000000003000000000000000000000000000000000000000000000000000000000000001c000000000000000000000000000000000000000000000000000000000000001b000000000000000000000000000000000000000000000000000000000000001c","nonce":"0xad","publicKey":"0x621458d96b2f9ea6469c95cbd82db7a9862a33c321faa65673b9566fb28166b5e0d9a06c0b1b7626f92ba2278d9a4e0c9c1d90520c5c4dc68f6b37d5315e1ec8","r":"0x78dca828b992f2f08d2ea02b6592b9589157620cbf5c1c6a5a27948ff662e8f9","raw":"0xf9028c81ad850c1b710800830493e0947de5aba7de728950c92c57d08e20d4077161f12f01b902243ed486790000000000000000000000000a0b9d1422bcc511162124fc110dd3b4bd7bf6fa00000000000000000000000000000000000000000000000000000000567ee92b00000000000000000000000000000000000000000000000000000000000000c000000000000000000000000000000000000000000000000000000000000001a000000000000000000000000023723abb7ca68cd48217f772695d1108048f8b7d0000000000000000000000000000000000000000000000000000000012897bc000000000000000000000000000000000000000000000000000000000000000064d4b9806f7f335c2c0cee753f5fb26ba652cba28e2f43d013337d84493bd2c2f54fd28edbb0a0a393ba3a6918daedd93f5db2e6215e541eef9e5e24299cc6e06bf42385fcecb8d6073b2793c618dca74f64b727352f9b2c7e82d112d5f0182ad5f8758758dd45370c548a9cc3bde42360a8ba5d3b1b94c38696d9a8e61298e7f561218ddbe75f080b12ef57acd3d793c89266bd44acd89aa7e8dd1356998f1af782b499b63045fd83afa5d07fa82446c19addde59c03a7a26cd032db4ff5b31a0000000000000000000000000000000000000000000000000000000000000003000000000000000000000000000000000000000000000000000000000000001c000000000000000000000000000000000000000000000000000000000000001b000000000000000000000000000000000000000000000000000000000000001c1ca078dca828b992f2f08d2ea02b6592b9589157620cbf5c1c6a5a27948ff662e8f9a075b0e5348f2e0e716108d268247d5d07e40aee69bd9de0d4a845292f69b0cf27","s":"0x75b0e5348f2e0e716108d268247d5d07e40aee69bd9de0d4a845292f69b0cf27","standardV":"0x1","to":"0x7de5aba7de728950c92c57d08e20d4077161f12f","transactionIndex":"0x1","v":"0x1c","value":"0x1"},{"blockHash":"0xe4114f29dab13bb379b1a200ef75950549d3338668804f73fbeff32a1d6aac96","blockNumber":"0xb7acf","chainId":null,"condition":null,"creates":null,"from":"0x2a65aca4d5fc5b5c859090a6c34d164135398226","gas":"0x15f90","gasPrice":"0xba43b7400","hash":"0x26072c865503f08e2e1cb03ff751d5efb435dce0b68d162a0fe4276aee29e79d","input":"0x","nonce":"0x12562","publicKey":"0x4c3eb5e19c71d8245eaaaba21ef8f94a70e9250848d10ade086f893a7a33a06d7063590e9e6ca88f918d7704840d903298fe802b6047fa7f6d09603eba690c39","r":"0x979a7416e1d67eac9e16174601c1b092026c1b7a5059c928de203edaf12b87b5","raw":"0xf87083012562850ba43b740083015f909492857a8bc0a6f66180324f49541c695a3a0ff94488657020c8542b8000801ba0979a7416e1d67eac9e16174601c1b092026c1b7a5059c928de203edaf12b87b5a0269711c10ce2860556845ab60c75fdbac185cd2923ae468c119c662afee6c6b5","s":"0x269711c10ce2860556845ab60c75fdbac185cd2923ae468c119c662afee6c6b5","standardV":"0x0","to":"0x92857a8bc0a6f66180324f49541c695a3a0ff944","transactionIndex":"0x2","v":"0x1b","value":"0x657020c8542b8000"}],"transactionsRoot":"0x056bc0f7600eea76f346a2211549a18307465e3c8de19f18c777d654f584df37","uncles":[]},"id":1}
